:020000040800F2
:1000000018070020290200087D1C0008511B000869
:10001000791C000831030008F91E000800000000E8
:10002000000000000000000000000000DD1E0008CD
:100030003503000800000000811C0008E11E0008D4
:10004000430200084302000843020008430200087C
:10005000430200084302000843020008430200086C
:10006000430200084302000843020008430200085C
:10007000430200084302000843020008430200084C
:10008000430200084302000843020008430200083C
:10009000430200084302000843020008430200082C
:1000A000430200084302000843020008430200081C
:1000B000430200084302000843020008430200080C
:1000C00043020008430200084302000843020008FC
:1000D00043020008430200084302000843020008EC
:1000E00043020008430200084302000843020008DC
:1000F00043020008430200084302000843020008CC
:1001000000000000000000000000000043020008A2
:1001100043020008430200084302000843020008AB
:10012000430200084302000843020008430200089B
:100130004302000843020008000000000000000025
:1001400043020008430200084302000800000000C8
:10015000000000000000000000000000000000009F
:1001600000000000000000004302000843020008F5
:100170004302000800000000000000000000000032
:10018000000000004302000800F002F800F03CF814
:100190000AA090E8000C82448344AAF10107DA45E2
:1001A00001D100F031F8AFF2090EBAE80F0013F0F8
:1001B000010F18BFFB1A43F0010318478C250000FC
:1001C000AC250000103A24BF78C878C1FAD852078D
:1001D00024BF30C830C144BF04680C6070470000C1
:1001E0000023002400250026103A28BF78C1FBD840
:1001F000520728BF30C148BF0B6070471FB502F0DF
:1002000075FA1FBD10B510BD00F05DF81146FFF77F
:10021000F5FF01F073FE00F07BF803B4FFF7F2FF87
:1002200003BC00F07FF800000948804709480047F8
:10023000FEE7FEE7FEE7FEE7FEE7FEE7FEE7FEE796
:10024000FEE7FEE704480549054A064B70470000F3
:10025000E51E000889010008180100201807002089
:1002600018030020180300204FF0000200B51346C9
:1002700094469646203922BFA0E80C50A0E80C50C6
:10028000B1F12001BFF4F7AF090728BFA0E80C5077
:1002900048BF0CC05DF804EB890028BF40F8042B70
:1002A00008BF704748BF20F8022B11F0804F18BFDD
:1002B00000F8012B7047704770477047004870473F
:1002C0001000002070477546FFF7F8FFAE460500A6
:1002D0006946534620F00700854618B020B5FFF761
:1002E000B1FFBDE820404FF000064FF000074FF08F
:1002F00000084FF0000BAC46ACE8C009ACE8C00900
:10030000ACE8C009ACE8C00921F007018D46704790
:1003100010B50446AFF300802046BDE81040FFF75B
:100320007CBF000001491820ABBEFEE7260002009A
:10033000FEE7000070470000EFF3108072B600BFC8
:10034000FEE700002DE9F04184B040F600040646C7
:10035000C4F60004F620ADF80E0020464FF400511C
:10036000002200F08BFD40F2AC05C2F200054FF018
:10037000FF380DF10E0103AA28460223CDF80080B4
:1003800001F05EFA074620464FF40051012200F0CA
:1003900075FD9DF80D0006F0070100F0F800002F34
:1003A00008BF014476208DF80A008DF80B10204616
:1003B0004FF40051002200F061FD0DF10A0102AA84
:1003C00028460223CDF8008001F03AFA284601F0D1
:1003D0008BF90128FAD120464FF40051012200F098
:1003E0004DFD04B0BDE8F081B0B582B005460024F3
:1003F0004D20002102220123009400F06BFB6C7A57
:100400005020002107220323009400F063FB601EAC
:10041000C0B2022806D842F21071C0F6000131F8CD
:10042000100001E04FF400602C7B68815020002117
:1004300003220423009400F04DFBAC7B032C07D077
:10044000022C11D1287C022402280DD104E000BF27
:10045000E87B0324032807D152200021072204232C
:10046000009400F037FBAC7B4E20002101220223D8
:10047000009400F02FFB012000F0FEFB142002B0DE
:10048000BDE8B04000F0F8BB70B582B00446007D16
:10049000012849D10120E67D00904C200021062250
:1004A0000123002500F016FB4C200021052201232A
:1004B000009600F00FFB667D162000210722022324
:1004C000009600F007FBE67F542000210022012364
:1004D000009600F0FFFA607E002101284FF05F00D7
:1004E0004FF003024FF0040308BF0D25009500F004
:1004F000F1FAA07EA18B00F0FDF9667C6520002159
:1005000003220123009600F0E5FA94F91E0000286A
:1005100029D4C6B20920042106220723009600F040
:10052000D9FA02B070BD00BF607D00210090162096
:1005300007220223002500F0CDFA607E0021012869
:100540004FF05F004FF003024FF0040308BF0D258A
:10055000009500F0BFFA667C65200021032201238C
:10056000009600F0B7FA02B070BD00002DE9F0412E
:1005700084B080469F20ADF80A000020FFF7E2FE1D
:1005800040F60005C4F6000528464FF4005100224D
:1005900000F074FC40F2AC06C2F200064FF0FF37E8
:1005A0000DF10A0102AA30460223009701F048F932
:1005B00028464FF40051012200F060FCA0209DF875
:1005C0000940ADF80E000020FFF7BCFE28464FF4AE
:1005D0000051002200F052FC0DF10E0103AA30463A
:1005E0000223009701F02CF928464FF40051012214
:1005F00000F044FC9DF80D0040EA0420A8F8240017
:1006000004B0BDE8F08100002DE9F04184B08046DF
:10061000A120ADF80A000020FFF794FE40F6000587
:10062000C4F6000528464FF40051002200F026FCD5
:1006300040F2AC06C2F200064FF0FF370DF10A019E
:1006400002AA30460223009701F0FAF828464FF438
:100650000051012200F012FCA2209DF80940ADF8E3
:100660000E000020FFF76EFE28464FF400510022D6
:1006700000F004FC0DF10E0103AA3046022300979E
:1006800001F0DEF828464FF40051012200F0F6FB9D
:100690009DF80D0040EA0420A8F8260004B0BDE84B
:1006A000F08100002DE9F04184B08046A320ADF830
:1006B0000A000020FFF746FE40F60005C4F60005DC
:1006C00028464FF40051002200F0D8FB40F2AC065F
:1006D000C2F200064FF0FF370DF10A0102AA3046C0
:1006E0000223009701F0ACF828464FF40051012294
:1006F00000F0C4FBA4209DF80940ADF80E000020D6
:10070000FFF720FE28464FF40051002200F0B6FB10
:100710000DF10E0103AA30460223009701F090F874
:1007200028464FF40051012200F0A8FB9DF80D006F
:1007300040EA0420A8F8280004B0BDE8F0810000D9
:10074000F0B583B00446AD20ADF80A0000200027C4
:10075000FFF7F8FD40F60005C4F6000528464FF403
:100760000051002200F08AFB40F2AC004FF0FF364F
:10077000C2F200000DF10A0102AA0223009601F064
:100780005FF8064628464FF40051012200F076FB40
:1007900016B1A77403B0F0BD9DF80900C0F3C00006
:1007A0000028A0744BD0204600F056F8B4F922007F
:1007B00001F042FE9FED240B53EC102B01F0E2FC04
:1007C0009FED230B53EC102B01F034FC01F000FCE7
:1007D000E0622046FFF7CAFE608900EE100AB4F915
:1007E0002400B8EE400A01EE100AB8EEC11A81EEFC
:1007F000000A204684ED0C0AFFF706FF608900EE30
:10080000100AB4F92600B8EE400A01EE100AB8EE5C
:10081000C11A81EE000A204684ED0D0AFFF742FF5F
:10082000608900EE100AB4F92800B8EE400A01EE23
:10083000100AB8EEC11A81EE000A84ED0E0A03B068
:10084000F0BD00BF00BF00BF8FC2F5285C8F6040C5
:1008500000000000000039402DE9F04184B08046DE
:100860009D20ADF80A000020FFF76CFD40F6000562
:10087000C4F6000528464FF40051002200F0FEFAAD
:1008800040F2AC06C2F200064FF0FF370DF10A014C
:1008900002AA30460223009700F0D2FF28464FF408
:1008A0000051012200F0EAFA9E209DF80940ADF8BF
:1008B0000E000020FFF746FD28464FF400510022AD
:1008C00000F0DCFA0DF10E0103AA30460223009776
:1008D00000F0B6FF28464FF40051012200F0CEFA96
:1008E0009DF80D0040EA0420A8F8220004B0BDE8FD
:1008F000F0810000F0B583B0012840D100200C4603
:10090000B0EBD12F3BD140F6000701265F2000213C
:1009100005220123C4F60007009600F0DBF86020F2
:100920008DF80A0000208DF80B40FFF70BFD3846CC
:100930004FF40051002200F0A1FA40F2AC06C2F2DE
:1009400000064FF0FF350DF10A0102AA30460223DE
:10095000009500F075FF00BF304600F0C5FE01288D
:10096000FAD138464FF40051012200F087FA270AE5
:100970006120002103220423009700F0ABF803B0AC
:10098000F0BD00002DE9F04F85B040F6000540F2C3
:10099000AC060446C4F600054FF0FF38C2F200066C
:1009A0004FF0AD090DF10E0A0DF10C0B07E000BF81
:1009B0009DF80D00C0F300100028A07044D140F253
:1009C0001110ADF80A000020FFF7BCFC28464FF4D8
:1009D0000051002200F052FA30460DF10A0102AA3D
:1009E0000223CDF8008000F02BFF00BF304600F05E
:1009F0007BFE0128FAD128464FF40051012200F075
:100A00003DFA012000F038F90020ADF80E90FFF714
:100A100099FC28464FF40051002200F02FFA30468E
:100A200051465A460223CDF8008000F009FF0746E0
:100A300028464FF40051012200F020FA002FB7D0D1
:100A400000200028A070BAD067797A200121012205
:100A50000123009700F03EF800277C2001210422AA
:100A60000523009700F036F8A7797B2001210222A8
:100A70000223009700F02EF8CC20ADF812000020E1
:100A8000FFF760FC28464FF40051002200F0F6F911
:100A900040F2AC004FF0FF37C2F200000DF112013E
:100AA00004AA0223009700F0CBFE064628464FF426
:100AB0000051012200F0E2F926B10020E07405B0F7
:100AC000BDE8F08F9DF81100C0F30010E07405B090
:100AD000BDE8F08F2DE9F04383B0072A4FF0010401
:100AE0002FD81E46082B2CD8054640F080008DF8E4
:100AF0000A00002040F600088DF80B000846174653
:100B0000C4F60008FFF71EFC40464FF400510022D7
:100B100000F0B4F940F2AC004FF0FF39C2F200002F
:100B20000DF10A0102AA0223CDF8009000F088FE20
:100B3000044640464FF40051012200F09FF92CB1C9
:100B40000124204603B0BDE8F08300BF0A9809FAEB
:100B500006F2BB1B9DF80910D24301339A4098401E
:100B60001040914308448DF8070040464FF400516F
:100B700000228DF8065000F081F940F2AC05C2F277
:100B800000050DF1060101AA28460223CDF80090C8
:100B900000F056FE044600BF284600F0A5FD0128DF
:100BA000FAD140464FF40051012200F067F9204687
:100BB00003B0BDE8F083000070B582B004460320A6
:100BC00000F05AF82046FFF7DDFE607D002100901E
:100BD0001620072202230025FFF77CFF6220002158
:100BE000062203230095FFF775FF54200021012200
:100BF00001230095FFF76EFF6420002104220123EA
:100C00000095FFF767FF667B532000210422022333
:100C10000096FFF75FFF2046FFF736FCF520ADF8A2
:100C200006000020FFF78EFB40F60005C4F6000525
:100C300028464FF40051002200F020F940F2AC00A9
:100C40004FF0FF36C2F200000DF1060101AA0223A7
:100C5000009600F0F5FD064628464FF400510122AB
:100C600000F00CF916B102B070BD00BF9DF8050090
:100C7000207102B070BD0000B0B5044600F004F968
:100C8000054640F20000C2F200000078611C18BF67
:100C9000044400BF00F0F8F8401BA042FAD3B0BDF6
:100CA0002DE9F04F84B08E4641F20002C4F60002F6
:100CB000DEF8004005219042019008BF0421002C7D
:100CC000009100F0D7800198002500F138424FEAEA
:100CD000B2230098012700264FF00008042B38BFEC
:100CE00018460090CDF808E00EE000BFDEF80040A6
:100CF00008F1010834FA07F106F1020607F10107CD
:100D000005F1040500F0B680A7F1010A012000FA00
:100D10000AF314EA0309E9D0DEF804C00CF0030B6F
:100D2000ABF10104012C17D80198744681680322A5
:100D3000E468B2409143B4402143816041684FEA86
:100D4000480E9943CCF3001303FA0AF30446D04348
:100D5000194361600CE000BF0321B140019CC8430E
:100D6000BBF1030FB64603D1B6464FF0030B23E0A9
:100D7000E168029A01409368BBF1020F03FA0EF397
:100D800041EA0301E16017D16FF0030101EA5A0162
:100D9000214405F01C040F23D1F820C003FA04FB02
:100DA00013692CEA0B0CA34043EA0C03019C0B6271
:100DB000D2F804C00CF0030B21680BFA0EF20140CC
:100DC00011432160DDF808E01CF4403F8ED041F271
:100DD0001800C4F20200016840F2004C41F0010129
:100DE00001600168C4F2010C01F001010391039953
:100DF0002AF003014FF6084A6144CFF6FF7A05F066
:100E00000C030F2051F80A2000FA03F40098A243C3
:100E100000FA03F31A4341F80A20DCF80010DEF868
:100E2000042041EA0903D40358BF21EA0903CCF89E
:100E30000030DCF80410940341EA090358BF21EAAA
:100E40000903CCF80430DCF8081040F20C4041EA09
:100E50000903D40258BF21EA0903CCF80830C4F2D0
:100E600001000168920241EA090358BF21EA09031F
:100E700003603BE704B0BDE8F08F00001823002AB0
:100E800008BF2823C150704740F21010C2F2000082
:100E90000068704740F2000040F21011C2F20000FA
:100EA000C2F2000100780A68104408607047000030
:100EB00080B542F20000C4F20200016841F0100166
:100EC0000160032000F072F80F2000F005F800F038
:100ED00027F8002080BD000070B540F20006C2F285
:100EE000000640F208013278C2F200014FF47A7332
:100EF0000968B3FBF2F20446B1FBF2F1084600F0D8
:100F000011FE0F2C4FF0010508D838B94FF0FF3013
:100F100021460022002500F01DF87460284670BDAF
:100F200082B041F21800C4F20200016841F00101F0
:100F30000160016801F0010101910199416841F0EE
:100F400080514160406800F080500090009802B0ED
:100F50007047000010B54EF60C5CCEF2000CDCF8C9
:100F60000030C3F3022E8EF00704042C28BF0424A3
:100F7000BEF103034FF0FF3E0EFA04F438BF002326
:100F8000A14399400EFA03F39A43114300F00F0274
:100F9000043A624409010C3200F16043B0F1FF3FB2
:100FA000C8BF03F56442117010BD00004EF60C512D
:100FB000CEF200010A684FF6FF031A4060F30A22DE
:100FC00042F0806040F0FD70086070472DE9F0410C
:100FD00082B00446807841F23006C007C4F20206AF
:100FE00056D056F8140C10F080580BD156F8140C4B
:100FF00040F0805046F8140C56F8140C00F0805065
:101000000190019847F20007C4F200073868C00554
:1010100012D4386840F480703860FFF735FF054619
:101020003868C00508D4FFF72FFF401B6428F7D9A4
:10103000032002B0BDE8F08156F8100C10F44070A7
:1010400015D0616801F44071884210D056F8100C38
:1010500040F24042C4F24222012320F44071136066
:101060000023C007136046F8101C40F0A38056F818
:10107000100C616820F440700843B8F1000F46F886
:10108000100C05D156F8140C20F0805046F8140CC2
:101090002068C1071CD1810722D4410728D48106CA
:1010A0002ED4810334D441063CD4010742D4C10676
:1010B00048D481054ED4010656D4C1055ED4C1047E
:1010C00066D480046CD4002002B0BDE8F08100BF7B
:1010D0003168A26821F00301114331608107DCD53A
:1010E0003168E26821F44031114331604107D6D5BF
:1010F0003168226921F44021114331608106D0D545
:101100003168E26921F01001114331608103CAD5D1
:1011100056F82C1CA26B21F48001114346F82C1CBC
:101120004106C2D53168226A21F0200111433160A5
:101130000107BCD53168626921F440111143316067
:10114000C106B6D53168A26921F44001114331606E
:101150008105B0D556F82C1CE26A21F40001114338
:1011600046F82C1C0106A8D556F8041C626A21F426
:10117000F871114346F8041CC105A0D556F8041CAB
:10118000A26A21F47851114346F8041CC10498D591
:101190003168226B21F4807111433160800492D553
:1011A0003068616B20F4007008433060002002B0AA
:1011B000BDE8F081FFF768FE054641F2883700BFC1
:1011C00056F8100C80073FF552AFFFF75DFE401B4D
:1011D000B8424FF00300F3D9E9E700002DE9F043EE
:1011E00081B0002877D042F20008C4F20208044619
:1011F000D8F800000D4600F0070088420CD2D8F85D
:10120000000020F007002843C8F80000D8F80000CC
:1012100000F00700A8425ED1206841F2040981076E
:10122000C4F2020907D5D9F80010A26821F0F00134
:101230001143C9F80010C00744D1D8F8000000F0ED
:101240000700A8420CD9D8F8000020F00700284376
:10125000C8F80000D8F8000000F00700A8423AD112
:101260002068410707D5D9F80010E26821F4E06151
:101270001143C9F80010000708D5D9F8000021690A
:1012800020F4605040EAC100C9F80000D9F80020FD
:1012900002F00C00082841F20020C0F27A0051D17F
:1012A00042F22673C2F38341C0F60003595CD9F8B9
:1012B0002830D2033CD440F60010C0F23D00484331
:1012C00040E000BF606802280AD001282AD159F8FE
:1012D000041C890308D4012001B0BDE8F08300BFDD
:1012E00059F8041C8901F6D5D9F8001021F0030142
:1012F0000843C9F80000FFF7C7FD064641F28837EA
:10130000D9F80000616800F00C00B0EB810F94D0B8
:10131000FFF7BAFD801BB842F2D9032001B0BDE847
:10132000F08300BF59F8041C8907D4D5DCE700BF5F
:1013300003F00F0242F23673C0F600039A5CB0FB72
:10134000F2F04843D9F8001042F21672C1F30311CB
:10135000C0F60002515C40F2080220FA01F140F2AE
:101360000400C2F200000068C2F200021160FFF740
:10137000B3FD002001B0BDE8F08300002DE9F0418D
:1013800082B0002850D00446007841F20006C00721
:10139000C4F202060AD0706800F00C00042840F085
:1013A00085803068800301D56068E8B320788007C5
:1013B0001AD5706810F00C0F09D0706800F00C009E
:1013C000082840F0A5807068C00300F1A180306853
:1013D000800702D52069012826D13068616920F094
:1013E000F80040EAC10030602078000720D420785F
:1013F000400735D4E56995B1706800F00C00082805
:1014000040F0C280012D0FD07068216A00F4803254
:101410008A4209D1616A00F47010884204D1002028
:1014200002B0BDE8F08100BF012002B0BDE8F0814C
:10143000A069002800F094800020C4F2422001211D
:10144000C0F88014FFF720FD054600BF706A8007D2
:10145000CDD4FFF719FD401B0228F7D91CE100BFCE
:10146000F06910F0805808D1F06940F08050F061C8
:10147000F06900F080500190019847F20007C4F233
:1014800000073868C00559D4386840F48070386067
:10149000FFF7FAFC054600BF3868C0054ED4FFF7D9
:1014A000F3FC401B6428F7D9F6E000BF706800F039
:1014B0000C00082803D17068C0033FF572AF606864
:1014C000B0F5A02F00F09480B0F5803F00F094803C
:1014D000002840F09580306820F48030306030681B
:1014E00020F480203060F06AA16820F00F000843EB
:1014F000F062FFF7C9FC0546306880037FF556AF00
:10150000FFF7C2FC401B64284FF00300F4D987E7C3
:101510002069002840F20000C4F2422056D0012188
:101520000160FFF7B1FC0546306880073FF555AF15
:10153000FFF7AAFC401B0228F6D9ADE0E0680028BE
:1015400000F07A80052800F09180012800F0928058
:10155000306A20F001003062306A20F004008CE034
:101560000020C4F242200021C0F88014FFF78CFC58
:10157000054600BF706A80077FF539AFFFF784FC2E
:10158000401B0228F6D987E00027C4F2422700203A
:101590003866FFF779FC022D05460BD130688001D3
:1015A00040F18880FFF770FC401B02284FF00300D9
:1015B000F4D935E7306880017FF531AFFFF764FC7F
:1015C000401B02284FF00300F4D929E700210160F5
:1015D000FFF75AFC054600BF306880077FF504AF6F
:1015E000FFF752FC401B02284FF00300F4D917E725
:1015F000306840F480203060306840F4803006E08D
:10160000306820F480303060306820F48020306012
:10161000F06AA16820F00F000843F062FFF734FC85
:10162000054600BF306880033FF5C0AEFFF72CFCD5
:10163000401B6428F6D92FE0306A20F001003062A8
:10164000306A20F004003062FFF71EFC054641F2CC
:10165000883700BF306A800722D5FFF715FC401B92
:10166000B8424FF00300F5D9DAE600BF306A40F027
:1016700004003062306A40F001003062FFF704FC81
:10168000054641F2883700BF306A800708D4FFF76B
:10169000FBFB401BB842F7D9032002B0BDE8F08144
:1016A000B8F1000F7FF4A6AEF06920F08050F06131
:1016B000A0E600BF7068D4E9082120F47410084344
:1016C0001043706001203866FFF7DEFB044600BF60
:1016D000306880013FF5A3AEFFF7D6FB001B022860
:1016E0004FF00300F4D99BE690F85D0070470000CE
:1016F000002804BF01207047B0B50446406A28B1F5
:101700000020206104F1140006E000BF6068B0F51D
:10171000827F03D004F11C00002101600025A56236
:1017200094F85D0020B9204684F85C5000F052F82F
:10173000022084F85D002068D4F80CE00268BEF551
:10174000E06F22F0400202604EF4006298BF012573
:10175000B2F5706F1CBF0023A3624FEA053CD4E9C9
:101760000135D4E9042103F4827305F404452B44C4
:1017700002F002021A44A36901F00101E569114473
:1017800003F40072114405F03802256A114405F093
:101790008002A56A114405F400521143016004213E
:1017A000626A0EF4706501EA1341636B45EA0C0549
:1017B00002F01002294303F008031143194341606A
:1017C000C16921F40061C16100200121206684F813
:1017D0005D10B0BD80B586B0006843F20001C4F270
:1017E0000101884202D006B080BD00BF41F2140062
:1017F000C4F20200416841F480514160416801F443
:10180000805101910199016841F4802101600068D3
:1018100001A900F480200190019838200190022055
:10182000029000200390032004900520059040F2D0
:101830000040C4F60000FFF733FA06B080BD000098
:101840002DE9F04381B0044690F85C00012803D1F3
:10185000022001B0BDE8F08301201E4615460F4668
:1018600084F85C00FFF710FB94F85D1081460129B5
:1018700040F0B080002F4FF0010018BF002D00F0A5
:101880004681002E00F0438194F85D0004281CBFBF
:10189000052084F85D00002020662564A4F84660D9
:1018A000A4F84460A763E687C4E913002068A6870C
:1018B000E1684268B1F5E06F22F48052134698BFA8
:1018C00003F58053012E88BF134643600268520619
:1018D00003D4026842F0400202606268731EB2FAEA
:1018E00082F2B3FA83F3DDF8208052095B09B1F587
:1018F000E06F43EA02017DD931B137F8021BC160C4
:10190000A763E08F0138E087012518F1010035D188
:1019100002E000BFFFF7B8FAE08F20B9B4F8460044
:10192000002800F0D7802068816889070CD5E18FF6
:1019300051B1012D08D1A16B002531F8022BC260F5
:10194000A163E18F0139E1878168C907E2D0B4F86A
:1019500046100029DED0C068216C012521F8020B59
:101960002164B4F846000138A4F84600D2E700BF6D
:10197000FFF78AFAA0EB0900404545D2E08F20B975
:10198000B4F84600002800F0A58020688168890727
:101990000CD5E18F51B1012D08D1A16B002531F893
:1019A000022BC260A163E18F0139E1878168C90719
:1019B000DED0B4F846100029DAD0C068216C0125C9
:1019C00021F8020B2164B4F846000138A4F846005F
:1019D000CEE700BF6068B0F5827F09D1A06800281B
:1019E0004FF0020008BF042940F0918042E700BF99
:1019F00002208CE099B1E18F02294FF6FE7105D3E8
:101A000037F8022BC26006E0032080E03A7801310B
:101A10000273A06B471CA763E08F0844E087012690
:101A200008F10105E08F18B9B4F84600002851D03C
:101A30002068816889071AD5E18FC1B1012E16D1BE
:101A4000E18F022908D3A16B31F8022BC260A16398
:101A5000E18F023909E000BFA16B09780173A16B26
:101A600020680131A163E18F01390026E187816897
:101A7000C90725D0B4F8461011B3B4F846100229AE
:101A800012D3C168226C22F8021B2264B4F84610FB
:101A90000239A4F84610B4F8461001290FD841685D
:101AA00041F4805141600AE0007B216C0870206C99
:101AB00001302064B4F846000138A4F8460001263D
:101AC000FFF7E2F9002DADD0A0EB09004045A9D306
:101AD00003201CE020464FF4C05142464B4600F024
:101AE000D1F868B9204641464A4600F08FF938B926
:101AF00020464FF4C06142464B4600F0C3F878B12F
:101B0000206E40F020002066202020660120012168
:101B100084F85D10002184F85C1001B0BDE8F0830A
:101B20000020F4E7411E0020B0EB116F1CBF012024
:101B300070474EF21002CEF2000251604EF6235171
:101B4000CEF20001F0230B70072190601160704706
:101B5000FEE700002DE9F04387B0002741F21400B2
:101B60000697C4F20200016840F2004841F40021E7
:101B700001600168C4F6000801F400210191019997
:101B8000016808F5806641F4800101600168012266
:101B900001F480010191019901684FF4005541F46D
:101BA000003101600168012401F4003101910199C3
:101BB000016841F48021016000684FF4005100F495
:101BC0008020019001983046FFF758F940464021A7
:101BD00000224FF04009FFF751F9CDE9025402AD60
:101BE00030462946CDE90447FFF75AF84FF4847090
:101BF000CDE902074FF0904029460497FFF750F8CF
:101C00000420CDE90207404629460497FFF748F82B
:101C100040462946CDE90294CDE90474FFF740F827
:101C200007B0BDE8F083000010B540F2AC0043F20D
:101C30000001C2F20000C4F201014FF482720023DD
:101C40004FF4E06C4FF4007E082480E80E1007216A
:101C5000C0E90433C0E906E4C0E90833C0E90A3149
:101C6000C0E90C34FFF744FD002808BF10BDBDE8F3
:101C70001040FEF761BB0000FEE70000FEE7000039
:101C8000704700002DE9F04782B000261F469046BD
:101C90000D4681468DF80360FFF7F6F8381A00EB21
:101CA0000807FFF7F1F840F20801C2F200010968E5
:101CB00023225143090DD9F8004079430191A168CD
:101CC000294271D0824618F1010037D0B5F5C06FB6
:101CD0001CD100BF207B8DF803009DF80300FFF7A7
:101CE000D3F8A0EB0A00B84262D20198019900280B
:101CF000A1F101010191D9F80010896808BF0746D8
:101D000011F4C06FE6D100264EE000BFFFF7BCF82B
:101D1000A0EB0A00B8424BD2019801990028A1F12A
:101D200001010191D9F80010896808BF07462942CE
:101D3000ECD10026304602B0BDE8F0870026B5F5AC
:101D4000C06F25D1207B8DF803009DF80300A068AB
:101D500010F4C06FEDD0207B8DF803009DF80300D8
:101D6000A06810F4C06FE4D0207B8DF803009DF8CC
:101D70000300A06810F4C06FDBD0207B8DF8030057
:101D80009DF80300A06810F4C06FDBD10CE000BF29
:101D9000A0682842CDD0A0682842CAD0A0682842B6
:101DA000C7D0A0682842F3D1304602B0BDE8F08722
:101DB000D9E900014268B1F5827F22F0E002426079
:101DC0000BD1D9F80810B1F5004F02D0B1F5806FF2
:101DD00003D1016821F040010160D9F82810B1F564
:101DE000005F07D1016821F400510160016841F4EE
:101DF00000510160012089F85D00002089F85C0035
:101E00000326304602B0BDE8F0870000F0B581B08F
:101E100015460E460446FFF737F8281A8719FFF7CC
:101E200033F840F20801C2F200010968C1F3CB3176
:101E30007943009121688A68120622D50546701CF4
:101E400015D000BFFFF720F8401BB8421CD2009805
:101E500000990028A1F1010100912168896808BF5B
:101E600007460806EED40CE08868000609D58868A5
:101E7000000606D58868000644BF88685FEA0060EF
:101E8000F2D4002001B0F0BDD4E900014268B1F500
:101E9000827F22F0E00242600AD1A168B1F5004FD2
:101EA00002D0B1F5806F03D1016821F040010160DB
:101EB000A16AB1F5005F07D1016821F4005101600A
:101EC000016841F400510160012084F85D000020A8
:101ED00084F85C00032001B0F0BD000070470000F2
:101EE000FEF7D8BF4EF68850CEF20000016841F4EC
:101EF0007001016070470000FEE700009EB040F2F4
:101F00007000C2F2000040F20111C0F8051040F26A
:101F1000061100240225C0F2031101264470C4708A
:101F20004572C16046748482A0F81940FEF7C0FF74
:101F3000684604303821CDE91944CDE91744FEF74D
:101F400093F94FF48030CDE91504CDE91B504FF4DF
:101F5000E0101D9014A814961896FFF70FFA28B1F8
:101F6000EFF3108072B600BFFEE700BF0F20CDE98F
:101F70000F054FF48060CDE912040FA802211194DF
:101F8000FFF72CF920B1EFF3108072B6FEE700BF27
:101F900020200090102007906846FFF717F828B11E
:101FA000EFF3108072B600BFFEE700BFFFF7D2FD6F
:101FB000FFF73AFE40F27004C2F200042046FEF73A
:101FC000FBFD2046FEF710FA2046FEF7B9FBFBE7C3
:101FD00021F0004201F00043A2F16052B2F5801FEF
:101FE00028BFD2F17F6C0BD95FEA001C43EAC20222
:101FF00042EB507018BF704728BF20F001007047B7
:10200000B2F5801FBCBF184670474FEA410C1CF563
:10201000001F02D2084600F076BB70B500F023FA2C
:1020200000000089FFF7F6BF4FF00040A0F58000E8
:102030007047000010B591EA030F48BF83F00043DA
:1020400000F16E82841A71EB030C05D2121943EB76
:102050000C03001B61EB0C014FEA1154A4EB135C61
:10206000DFF81CE11EEA430F18BF9EEA445F00F050
:10207000748021EA045123EA0E0343F48013DCF157
:10208000200E32D322FA0CFE10EB0E0023FA0CFEC7
:1020900041EB0E01CCF1200E03FA0EFE10EB0E0008
:1020A000CCF1200E51F10001B1F5801F32D201EBCD
:1020B000045112FA0EF2BDE8104058BF7047401CA0
:1020C00038BF5FEA420218BF7047002814BF20F0F3
:1020D000010041F100014FEA410313F5001F38BF31
:1020E0007047A1F1C04100F00CBA012A43EB030292
:1020F000ACF1200CDCF11F0E32BF4FF0000E23FAC2
:102100000CF310EB030041EB0451B4EB115FD0D0A2
:10211000A1EB045101F58011490801EB04515FEA7C
:1021200030000ED350F1000038BF12FA0EFE08D175
:10213000BDE81040C9E7401C38BF5FEA4202CAD17F
:10214000C3E7BDE810404FEA410313F5001F38BF55
:102150007047A1F1C04100F0D4B99EEA445F08D0B5
:1021600011EA5E0FBDE8104004BF01F000410020FD
:102170007047BDE8104070B500F075F964FBBE3ED5
:102180000000E0FF2DE9C04130B4DFF8A4C23CEA12
:10219000111418BF3CEA131400F0ED801CEA11146E
:1021A00081EA030544EAD57418BF1CEA131500F050
:1021B000C880A4EB050404F17F7404F500344FF0EB
:1021C000004545EAC12145EAC32341EA505143EAAB
:1021D00052534FEAC0204FEAC222994208BF9042B0
:1021E00000F09D804FEA13650FF24416765D4FEACA
:1021F000134506FB05F7C7F1807706FB07F74FEAA3
:10220000D737A7FB03687642A7FB06CEC8F5803810
:1022100038BFA8F1010807FB08E6A6FB028C4FF0C7
:10222000000EE6FB03CEDCF1000CCEF1004E38BF11
:10223000AEF1010EA6FB0C584FF00007E6FB0E872F
:10224000A1FB08C6A0FB07CE16EB0E064FF000055B
:1022500045F10005E1FB076515F1E04E7EBFA4F5F1
:1022600080345FEA46066D4116F1800745F10005AE
:102270004FEA172747EA05674FEA15254FEA066632
:10228000A6F1DE46B6F1805F20D9384605EBC47171
:1022900024F0010C01EB0C11BCF1FE6F02D8F0BC74
:1022A000BDE8008124425CBF01F5801E9EEAC47F28
:1022B00002D4F0BCBDE80081244200F13980A1F1D4
:1022C000C041F0BCBDE8004100F01BB94FEAD0208E
:1022D00040EA41504FEAD1214FEAD22242EA43522A
:1022E0004FEAD323A7FB028607FB036605FB0266C2
:1022F0001EEA0E0F58BFA6EB0056B6EB00564FEA8B
:10230000520E4EEAC37E18EB0E0E56EB530EBCD5A2
:1023100018EB02085E417F1C55F10005B5E74FF44C
:1023200080154FF000074FF000064FF00008ACE7B3
:1023300001F1C04101F000414FF00000F0BCBDE8E8
:1023400000810CEA131511EA0C1F00D00CE013EA0F
:102350000C1F00F026804FF0000081EA030101F01D
:102360000041F0BCBDE80081F0BCBDE8004181EA5D
:10237000030100F0C6B8F0BCBDE8004170B500F044
:1023800072F800BF097EFC3E00F007B84FF0000075
:1023900081EA030101F00041704781EA030100F086
:1023A000B0B8F0BCBDE8004122494FF000007047D2
:1023B000FFFDFBF9F7F5F4F2F0EEEDEBE9E8E6E40A
:1023C000E3E1E0DEDDDBDAD8D7D5D4D3D1D0CFCD91
:1023D000CCCBCAC8C7C6C5C4C2C1C0BFBEBDBCBBCA
:1023E000BAB9B8B7B6B5B4B3B2B1B0AFAEADACABC5
:1023F000AAA9A8A8A7A6A5A4A3A3A2A1A09F9F9E9F
:102400009D9C9C9B9A999998979796959594939350
:10241000929191908F8F8E8E8D8C8C8B8B8A8989E7
:10242000888887878685858484838382828181806A
:102430000000FF070000F87F10F0004248BF404254
:10244000B0FA80F310FA03F10AD0C3F11D0303F5CB
:10245000806302EB03524FEA415002EBD1217047F7
:102460004FF0000070470EF1020E2EF0030E5EF8E2
:10247000046B364205D4012A43EB030515F5001F12
:1024800012D8012841EB010C1CF5001F0CD80ED10D
:102490004FEAD17C0CEB4C0C0CF1020C15F5001F33
:1024A00008BF4CEBD37C04E04FF0080C01E04FEA8E
:1024B000D37C0CEB4C0526FA05F606F00706B6F1C0
:1024C000040C06D20EEB860CBDE870404CF0010CFB
:1024D0006047DFE80CF0090B02024FF00041A1F564
:1024E00000214FF0000070BD19461046012851EB45
:1024F000010418BFD4F5001484BF002001F000418E
:1025000070BD0808A0F500114FEA310170470000C6
:1025100010B591EA030F48BF83F000433FF592AD39
:10252000841A71EB030C07D28CF0004C121943EBA8
:102530000C03001B61EB0C014FEA1154A4EB135C7C
:10254000DFF8A4E11EEA430F18BF9EEA445F00F0E3
:10255000B48021EA045123EA6E035242C3EB6E03B6
:1025600038BF5B1EDCF1200E25D322FA0CFE10EBE7
:102570000E0043FA0CFE41EB0E01CCF1200E03FAE3
:102580000EFE10EB0E00CCF1200E51F1000129D40B
:1025900001EB045112FA0EF2BDE8104058BF70472B
:1025A000401C1CBFB2F1004F704700280CBF491CF3
:1025B00020F00100704712EB020E43EB030218BF3C
:1025C0004FF0010E4EEA4202ACF1200CDCF11E0E7F
:1025D00056D943FA0CFE10EB0E00CCF11E0E51F151
:1025E000FF31D5D50EF1010E12FA0EFE404141EB3E
:1025F000010101EB445C5FEA5C5C10D901EB045122
:1026000010EBDE7038BFBEF1004FBDE8104018BFC0
:10261000704700280CBF491C20F00100704734D2DD
:102620004FEAD42C24F4006411F500111BD0B1FA48
:1026300081F20B3AA41AA41ED2F12003914030FA81
:1026400003F31943904001EBCC7101EB0451002CD2
:10265000BDE81040A8BF704701F1C04101F0004142
:102660004FF000007047B0FA80F310FA03F102D186
:10267000BDE810407047E41A173C4805C90AE2E774
:1026800001EB0451BDE81040704749104FEA30009B
:1026900001EB0451BDE8104002E04FF0000170472B
:1026A0004A0008BF0042F8D0B2F5001F28BF7047AB
:1026B00001F000414FF0000070479EEA445F07D0F0
:1026C00011EA5E0FBDE8104004BF002100207047F2
:1026D000BDE8104070B5FFF7C6FE00BF40DFF63E14
:1026E000104683F0004170470000E0FFF1EE100A51
:1026F0004FF6FF71C0F2C03120EA010040F0407097
:10270000E1EE100A7047FF2141EAD050C005704742
:102710000010002000400000000000000000010246
:1027200003040607080902030405060708090A0B43
:102730000C0D0E0F10100102030405060708090A0C
:102740000B0C0D0E0F100000682700080000002081
:1027500010000000C40100087827000810000020C5
:1027600008070000E0010008010000001000000060
:0827700000127A0000000000D5
:040000050800018965
:00000001FF
